{
  "address": "0x0b4EE8721cc2D777291eF918Fe05e7471c9c9dc5",
  "abi": [
    {
      "inputs": [],
      "name": "IDENTICAL_ADDRESSES",
      "type": "error"
    },
    {
      "inputs": [],
      "name": "PAIR_ALREADY_EXISTS",
      "type": "error"
    },
    {
      "inputs": [],
      "name": "ZERO_ADDRESS",
      "type": "error"
    },
    {
      "anonymous": false,
      "inputs": [
        {
          "indexed": true,
          "internalType": "address",
          "name": "token0",
          "type": "address"
        },
        {
          "indexed": true,
          "internalType": "address",
          "name": "token1",
          "type": "address"
        },
        {
          "indexed": false,
          "internalType": "address",
          "name": "pair",
          "type": "address"
        },
        {
          "indexed": false,
          "internalType": "uint256",
          "name": "",
          "type": "uint256"
        }
      ],
      "name": "PairCreated",
      "type": "event"
    },
    {
      "inputs": [
        {
          "internalType": "uint256",
          "name": "",
          "type": "uint256"
        }
      ],
      "name": "allPairs",
      "outputs": [
        {
          "internalType": "address",
          "name": "",
          "type": "address"
        }
      ],
      "stateMutability": "view",
      "type": "function"
    },
    {
      "inputs": [],
      "name": "allPairsLength",
      "outputs": [
        {
          "internalType": "uint256",
          "name": "",
          "type": "uint256"
        }
      ],
      "stateMutability": "view",
      "type": "function"
    },
    {
      "inputs": [
        {
          "internalType": "address",
          "name": "tokenA",
          "type": "address"
        },
        {
          "internalType": "address",
          "name": "tokenB",
          "type": "address"
        }
      ],
      "name": "createPair",
      "outputs": [
        {
          "internalType": "address",
          "name": "pair",
          "type": "address"
        }
      ],
      "stateMutability": "nonpayable",
      "type": "function"
    },
    {
      "inputs": [
        {
          "internalType": "address",
          "name": "tokenA",
          "type": "address"
        },
        {
          "internalType": "address",
          "name": "tokenB",
          "type": "address"
        }
      ],
      "name": "getPair",
      "outputs": [
        {
          "internalType": "address",
          "name": "",
          "type": "address"
        }
      ],
      "stateMutability": "view",
      "type": "function"
    },
    {
      "inputs": [],
      "name": "implementation",
      "outputs": [
        {
          "internalType": "address",
          "name": "",
          "type": "address"
        }
      ],
      "stateMutability": "view",
      "type": "function"
    }
  ],
  "transactionHash": "0x5bc09544e69fd078f81651d77907fbe22cb7ca54c68c57ce836f612319fd6512",
  "args": [],
  "numDeployments": 1,
  "solcInputHash": "2c27c94f834873ddb91fe9448408c4a4",
  "bytecode": "0x60806040526040516100109061005f565b604051809103906000f08015801561002c573d6000803e3d6000fd5b50600280546001600160a01b0319166001600160a01b039290921691909117905534801561005957600080fd5b5061006c565b6126168061062d83390190565b6105b28061007b6000396000f3fe608060405234801561001057600080fd5b50600436106100675760003560e01c80635c60da1b116100505780635c60da1b146100ad578063c9c65396146100c0578063e6a43905146100d357600080fd5b80631e3dd18b1461006c578063574f2ba31461009c575b600080fd5b61007f61007a366004610514565b6100e6565b6040516001600160a01b0390911681526020015b60405180910390f35b600154604051908152602001610093565b60025461007f906001600160a01b031681565b61007f6100ce366004610549565b610110565b61007f6100e1366004610549565b6103e7565b600181815481106100f657600080fd5b6000918252602090912001546001600160a01b0316905081565b6000816001600160a01b0316836001600160a01b0316141561015e576040517f82dfd2a200000000000000000000000000000000000000000000000000000000815260040160405180910390fd5b600080836001600160a01b0316856001600160a01b031610610181578385610184565b84845b90925090506001600160a01b0382166101c9576040517f538ba4f900000000000000000000000000000000000000000000000000000000815260040160405180910390fd5b6001600160a01b0382811660009081526020818152604080832085851684529091529020541615610226576040517f05ef58b400000000000000000000000000000000000000000000000000000000815260040160405180910390fd5b6002546040517fffffffffffffffffffffffffffffffffffffffff000000000000000000000000606085811b8216602084015284901b16603482015261028e916001600160a01b0316906048016040516020818303038152906040528051906020012061043f565b6040517f1794bb3c0000000000000000000000000000000000000000000000000000000081526001600160a01b03848116600483015283811660248301526019604483015291945090841690631794bb3c90606401600060405180830381600087803b1580156102fd57600080fd5b505af1158015610311573d6000803e3d6000fd5b505050506001600160a01b0382811660008181526020818152604080832086861680855290835281842080547fffffffffffffffffffffffff0000000000000000000000000000000000000000908116978b16978817909155600180548082018255958190527fb10e2d527612073b26eecdfd717e6a320cf44b4afac2b0732d9fcbe2b7fa0cf6909501805490911687179055925481519586529185019190915290927f0d3648bd0f6ba80134a33ba9275ac585d9d315f0ad8355cddefde31afa28d0e9910160405180910390a3505092915050565b6000806000836001600160a01b0316856001600160a01b03161061040c57838561040f565b84845b6001600160a01b039182166000908152602081815260408083209385168352929052205416925050505b92915050565b60006040517f3d602d80600a3d3981f3363d3d373d3d3d363d7300000000000000000000000081528360601b60148201527f5af43d82803e903d91602b57fd5bf300000000000000000000000000000000006028820152826037826000f59150506001600160a01b038116610439576040517f08c379a000000000000000000000000000000000000000000000000000000000815260206004820152601760248201527f455243313136373a2063726561746532206661696c6564000000000000000000604482015260640160405180910390fd5b60006020828403121561052657600080fd5b5035919050565b80356001600160a01b038116811461054457600080fd5b919050565b6000806040838503121561055c57600080fd5b6105658361052d565b91506105736020840161052d565b9050925092905056fea264697066735822122061a3aaac9e47fb5cca85339f6d69589901aab952b3e22f90accac162853529c664736f6c634300080c003360e06040523480156200001157600080fd5b50604080518082018252601081526f2ab734b837b7b6102628102a37b5b2b760811b6020808301918252835180850190945260038452620434c560ec1b9084015281519192916012916200006991600091906200013e565b5081516200007f9060019060208501906200013e565b5060ff81166080524660a05262000095620000a2565b60c05250620002c5915050565b60007f8b73c3c69bb8fe3d512ecc4cf759cc79239f7b179b0ffacaa9a75d522b39400f6000604051620000d6919062000221565b6040805191829003822060208301939093528101919091527fc89efdaa54c0f20c7adf612882df0950f5a951637e0307cdcb4c672f298b8bc660608201524660808201523060a082015260c00160405160208183030381529060405280519060200120905090565b8280546200014c90620001e4565b90600052602060002090601f016020900481019282620001705760008555620001bb565b82601f106200018b57805160ff1916838001178555620001bb565b82800160010185558215620001bb579182015b82811115620001bb5782518255916020019190600101906200019e565b50620001c9929150620001cd565b5090565b5b80821115620001c95760008155600101620001ce565b600181811c90821680620001f957607f821691505b602082108114156200021b57634e487b7160e01b600052602260045260246000fd5b50919050565b600080835481600182811c9150808316806200023e57607f831692505b60208084108214156200025f57634e487b7160e01b86526022600452602486fd5b8180156200027657600181146200028857620002b7565b60ff19861689528489019650620002b7565b60008a81526020902060005b86811015620002af5781548b82015290850190830162000294565b505084890196505b509498975050505050505050565b60805160a05160c051612321620002f56000396000610c5e01526000610c29015260006102ad01526123216000f3fe608060405234801561001057600080fd5b50600436106101ae5760003560e01c806370a08231116100ee578063bc25cf7711610097578063d806fe4411610071578063d806fe44146103ff578063dd62ed3e14610408578063f76e21f214610433578063fff6cae91461043c57600080fd5b8063bc25cf77146103c6578063c45a0155146103d9578063d505accf146103ec57600080fd5b806395d89b41116100c857806395d89b4114610398578063999b93af146103a0578063a9059cbb146103b357600080fd5b806370a08231146103305780637ecebe001461035057806389afcb441461037057600080fd5b806323b872dd1161015b5780633644e515116101355780633644e515146102e15780635001f3b5146102e957806354cf2aeb146103145780636a6278421461031d57600080fd5b806323b872dd1461026e57806330adf81f14610281578063313ce567146102a857600080fd5b8063095ea7b31161018c578063095ea7b3146102215780631794bb3c1461024457806318160ddd1461025757600080fd5b8063022c0d9f146101b357806306fdde03146101c85780630902f1ac146101e6575b600080fd5b6101c66101c1366004611ec4565b610444565b005b6101d0610898565b6040516101dd9190611f84565b60405180910390f35b603f54604080516001600160701b038084168252600160701b8404166020820152600160e01b90920463ffffffff16908201526060016101dd565b61023461022f366004611fb7565b610926565b60405190151581526020016101dd565b6101c6610252366004611fe1565b610992565b61026060025481565b6040519081526020016101dd565b61023461027c366004611fe1565b610b33565b6102607f6e71edae12b1b97f4d1f60370fef10105fa2faae0126114a169c64845d6126c981565b6102cf7f000000000000000000000000000000000000000000000000000000000000000081565b60405160ff90911681526020016101dd565b610260610c25565b603a546102fc906001600160a01b031681565b6040516001600160a01b0390911681526020016101dd565b610260603c5481565b61026061032b36600461201d565b610c80565b61026061033e36600461201d565b60036020526000908152604090205481565b61026061035e36600461201d565b60056020526000908152604090205481565b61038361037e36600461201d565b610f25565b604080519283526020830191909152016101dd565b6101d0611271565b603b546102fc906001600160a01b031681565b6102346103c1366004611fb7565b61127e565b6101c66103d436600461201d565b6112f6565b6039546102fc906001600160a01b031681565b6101c66103fa366004612038565b61143a565b610260603d5481565b6102606104163660046120ab565b600460209081526000928352604080842090915290825290205481565b610260603e5481565b6101c66116b5565b6002600754141561049c5760405162461bcd60e51b815260206004820152601f60248201527f5265656e7472616e637947756172643a207265656e7472616e742063616c6c0060448201526064015b60405180910390fd5b60026007556104ab84866120f4565b6104e1576040517f27dc822c00000000000000000000000000000000000000000000000000000000815260040160405180910390fd5b600080610512603f546001600160701b0380821692600160701b83049091169163ffffffff600160e01b9091041690565b5091509150816001600160701b03168711806105375750806001600160701b03168610155b1561056e576040517f827e7b7f00000000000000000000000000000000000000000000000000000000815260040160405180910390fd5b603a54603b546000918291829182916001600160a01b0391821691168c1561059b5761059b828c8f61180a565b8b156105ac576105ac818c8e61180a565b8815610619578a6001600160a01b03166310d1e85c338f8f8e8e6040518663ffffffff1660e01b81526004016105e695949392919061210c565b600060405180830381600087803b15801561060057600080fd5b505af1158015610614573d6000803e3d6000fd5b505050505b6040516370a0823160e01b81523060048201526001600160a01b038316906370a0823190602401602060405180830381865afa15801561065d573d6000803e3d6000fd5b505050506040513d601f19601f820116820180604052508101906106819190612159565b6040516370a0823160e01b81523060048201529094506001600160a01b038216906370a0823190602401602060405180830381865afa1580156106c8573d6000803e3d6000fd5b505050506040513d601f19601f820116820180604052508101906106ec9190612159565b925050508a866001600160701b031603821115610714578a866001600160701b031603820393505b89856001600160701b0316038111156107385789856001600160701b031603810392505b838301610771576040517f6cfcc33200000000000000000000000000000000000000000000000000000000815260040160405180910390fd5b603c5460006107808287612172565b61078c61271086612172565b6107969190612191565b905060006107a48387612172565b6107b061271086612172565b6107ba9190612191565b90506107d26001600160701b03808a16908b16612172565b6107e0906305f5e100612172565b6107ea8284612172565b1015610822576040517f50af4e5f00000000000000000000000000000000000000000000000000000000815260040160405180910390fd5b50505061083182828888611953565b60408051858152602081018590529081018c9052606081018b90526001600160a01b038a169033907fd78ad95fa46c994b6551d0da85fc275fe613ce37657fb8d5e3d130840159d8229060800160405180910390a350506001600755505050505050505050565b600080546108a5906121a8565b80601f01602080910402602001604051908101604052809291908181526020018280546108d1906121a8565b801561091e5780601f106108f35761010080835404028352916020019161091e565b820191906000526020600020905b81548152906001019060200180831161090157829003601f168201915b505050505081565b3360008181526004602090815260408083206001600160a01b038716808552925280832085905551919290917f8c5be1e5ebec7d5bd14f71427d1e84f3dd0314c0f7b2291e5b200ac8c7c3b925906109819086815260200190565b60405180910390a350600192915050565b600654610100900460ff166109ad5760065460ff16156109b1565b303b155b610a235760405162461bcd60e51b815260206004820152602e60248201527f496e697469616c697a61626c653a20636f6e747261637420697320616c72656160448201527f647920696e697469616c697a65640000000000000000000000000000000000006064820152608401610493565b600654610100900460ff16158015610a6257600680547fffffffffffffffffffffffffffffffffffffffffffffffffffffffffffff0000166101011790555b603c5415610a9c576040517f9528888300000000000000000000000000000000000000000000000000000000815260040160405180910390fd5b603c829055603b80546001600160a01b038086167fffffffffffffffffffffffff000000000000000000000000000000000000000092831617909255603a805492871692909116919091179055610af66000612710611b2c565b610afe611b98565b8015610b2d57600680547fffffffffffffffffffffffffffffffffffffffffffffffffffffffffffff00ff1690555b50505050565b6001600160a01b03831660009081526004602090815260408083203384529091528120546000198114610b8f57610b6a8382612191565b6001600160a01b03861660009081526004602090815260408083203384529091529020555b6001600160a01b03851660009081526003602052604081208054859290610bb7908490612191565b90915550506001600160a01b03808516600081815260036020526040908190208054870190555190918716907fddf252ad1be2c89b69c2b068fc378daa952ba7f163c4a11628f55a4df523b3ef90610c129087815260200190565b60405180910390a3506001949350505050565b60007f00000000000000000000000000000000000000000000000000000000000000004614610c5b57610c56611c1f565b905090565b507f000000000000000000000000000000000000000000000000000000000000000090565b600060026007541415610cd55760405162461bcd60e51b815260206004820152601f60248201527f5265656e7472616e637947756172643a207265656e7472616e742063616c6c006044820152606401610493565b6002600755600080610d0b603f546001600160701b0380821692600160701b83049091169163ffffffff600160e01b9091041690565b50603a546040516370a0823160e01b81523060048201529294509092506000916001600160a01b03909116906370a0823190602401602060405180830381865afa158015610d5d573d6000803e3d6000fd5b505050506040513d601f19601f82011682018060405250810190610d819190612159565b603b546040516370a0823160e01b81523060048201529192506000916001600160a01b03909116906370a0823190602401602060405180830381865afa158015610dcf573d6000803e3d6000fd5b505050506040513d601f19601f82011682018060405250810190610df39190612159565b90506000610e0a6001600160701b03861684612191565b90506000610e216001600160701b03861684612191565b600254909150612710811415610e5757612710610e46610e418486612172565b611cb9565b610e509190612191565b9750610e8b565b610e88610e76610e678386612172565b896001600160701b0316900490565b610e83610e678486612172565b611d9f565b97505b87610ec2576040517fa709eb6800000000000000000000000000000000000000000000000000000000815260040160405180910390fd5b610ecc8989611b2c565b610ed885858989611953565b604080518481526020810184905233917f4c209b5fc8ad50758f13e2e1088ba56a560dff690a1c6fef26394f4c03821c4f910160405180910390a250506001600755509395945050505050565b60008060026007541415610f7b5760405162461bcd60e51b815260206004820152601f60248201527f5265656e7472616e637947756172643a207265656e7472616e742063616c6c006044820152606401610493565b6002600755600080610fb1603f546001600160701b0380821692600160701b83049091169163ffffffff600160e01b9091041690565b50603a54603b546040516370a0823160e01b81523060048201529395509193506001600160a01b039081169291169060009083906370a0823190602401602060405180830381865afa15801561100b573d6000803e3d6000fd5b505050506040513d601f19601f8201168201806040525081019061102f9190612159565b6040516370a0823160e01b81523060048201529091506000906001600160a01b038416906370a0823190602401602060405180830381865afa158015611079573d6000803e3d6000fd5b505050506040513d601f19601f8201168201806040525081019061109d9190612159565b30600090815260036020526040902054600254919250906110c76110c18584612172565b82900490565b99506110d66110c18484612172565b9850891580156110e4575088155b1561111b576040517fca7551f700000000000000000000000000000000000000000000000000000000815260040160405180910390fd5b6111253083611db7565b611130868c8c61180a565b61113b858c8b61180a565b6040516370a0823160e01b8152306004820152611216906001600160a01b038816906370a0823190602401602060405180830381865afa158015611183573d6000803e3d6000fd5b505050506040513d601f19601f820116820180604052508101906111a79190612159565b6040516370a0823160e01b81523060048201526001600160a01b038816906370a0823190602401602060405180830381865afa1580156111eb573d6000803e3d6000fd5b505050506040513d601f19601f8201168201806040525081019061120f9190612159565b8a8a611953565b604080518b8152602081018b90526001600160a01b038d169133917fdccd412f0b1252819cb1fd330b93224ca42612892bb3f4f789976e6d81936496910160405180910390a350505050505050506001600781905550915091565b600180546108a5906121a8565b3360009081526003602052604081208054839190839061129f908490612191565b90915550506001600160a01b038316600081815260036020526040908190208054850190555133907fddf252ad1be2c89b69c2b068fc378daa952ba7f163c4a11628f55a4df523b3ef906109819086815260200190565b600260075414156113495760405162461bcd60e51b815260206004820152601f60248201527f5265656e7472616e637947756172643a207265656e7472616e742063616c6c006044820152606401610493565b6002600755603a54603b54603f546040516370a0823160e01b81523060048201526001600160a01b0393841693909216916113e891849186916001600160701b03169083906370a08231906024015b602060405180830381865afa1580156113b5573d6000803e3d6000fd5b505050506040513d601f19601f820116820180604052508101906113d99190612159565b6113e39190612191565b61180a565b603f546040516370a0823160e01b81523060048201526114309183918691600160701b90046001600160701b0316906001600160a01b038416906370a0823190602401611398565b5050600160075550565b4284101561148a5760405162461bcd60e51b815260206004820152601760248201527f5045524d49545f444541444c494e455f455850495245440000000000000000006044820152606401610493565b6000611494610c25565b6001600160a01b0389811660008181526005602090815260409182902080546001810190915582517f6e71edae12b1b97f4d1f60370fef10105fa2faae0126114a169c64845d6126c98184015280840194909452938c166060840152608083018b905260a083019390935260c08083018a90528151808403909101815260e0830190915280519201919091207f19010000000000000000000000000000000000000000000000000000000000006101008301526101028201929092526101228101919091526101420160408051601f198184030181528282528051602091820120600080855291840180845281905260ff88169284019290925260608301869052608083018590529092509060019060a0016020604051602081039080840390855afa1580156115c8573d6000803e3d6000fd5b5050604051601f1901519150506001600160a01b038116158015906115fe5750886001600160a01b0316816001600160a01b0316145b61164a5760405162461bcd60e51b815260206004820152600e60248201527f494e56414c49445f5349474e45520000000000000000000000000000000000006044820152606401610493565b6001600160a01b0390811660009081526004602090815260408083208b8516808552908352928190208a905551898152919350918a16917f8c5be1e5ebec7d5bd14f71427d1e84f3dd0314c0f7b2291e5b200ac8c7c3b925910160405180910390a350505050505050565b600260075414156117085760405162461bcd60e51b815260206004820152601f60248201527f5265656e7472616e637947756172643a207265656e7472616e742063616c6c006044820152606401610493565b6002600755603a546040516370a0823160e01b8152306004820152611803916001600160a01b0316906370a0823190602401602060405180830381865afa158015611757573d6000803e3d6000fd5b505050506040513d601f19601f8201168201806040525081019061177b9190612159565b603b546040516370a0823160e01b81523060048201526001600160a01b03909116906370a0823190602401602060405180830381865afa1580156117c3573d6000803e3d6000fd5b505050506040513d601f19601f820116820180604052508101906117e79190612159565b603f546001600160701b0380821691600160701b900416611953565b6001600755565b604080516001600160a01b038481166024830152604480830185905283518084039091018152606490920183526020820180517bffffffffffffffffffffffffffffffffffffffffffffffffffffffff167fa9059cbb00000000000000000000000000000000000000000000000000000000179052915160009283929087169161189491906121dd565b6000604051808303816000865af19150503d80600081146118d1576040519150601f19603f3d011682016040523d82523d6000602084013e6118d6565b606091505b509150915081801561190057508051158061190057508080602001905181019061190091906121f9565b61194c5760405162461bcd60e51b815260206004820152601f60248201527f5472616e7366657248656c7065723a205452414e534645525f4641494c4544006044820152606401610493565b5050505050565b6001600160701b0384118061196e57506001600160701b0383115b156119a5576040517f2c66ea7a00000000000000000000000000000000000000000000000000000000815260040160405180910390fd5b603f5463ffffffff42811691600160e01b9004811682031680158015906119d457506001600160701b03841615155b80156119e857506001600160701b03831615155b15611a6d5780846001600160701b03166070856001600160701b0316901b81611a1357611a1361221b565b603d80549290910492909202019055806001600160701b0384167bffffffffffffffffffffffffffff0000000000000000000000000000607087901b1681611a5d57611a5d61221b565b603e805492909104929092020190555b603f80546001600160701b03908116600160e01b63ffffffff8616027fffffffff0000000000000000000000000000ffffffffffffffffffffffffffff1617600160701b8883168102919091177fffffffffffffffffffffffffffffffffffff00000000000000000000000000001689831690811793849055604080519182529190930490911660208301527f1c411e9a96e071241c2f21f7726b17ae89e3cab4c78be50e062b03a9fffbbad1910160405180910390a1505050505050565b8060026000828254611b3e91906120f4565b90915550506001600160a01b0382166000818152600360209081526040808320805486019055518481527fddf252ad1be2c89b69c2b068fc378daa952ba7f163c4a11628f55a4df523b3ef91015b60405180910390a35050565b600654610100900460ff16611c155760405162461bcd60e51b815260206004820152602b60248201527f496e697469616c697a61626c653a20636f6e7472616374206973206e6f74206960448201527f6e697469616c697a696e670000000000000000000000000000000000000000006064820152608401610493565b611c1d611e2b565b565b60007f8b73c3c69bb8fe3d512ecc4cf759cc79239f7b179b0ffacaa9a75d522b39400f6000604051611c519190612231565b6040805191829003822060208301939093528101919091527fc89efdaa54c0f20c7adf612882df0950f5a951637e0307cdcb4c672f298b8bc660608201524660808201523060a082015260c00160405160208183030381529060405280519060200120905090565b6001817001000000000000000000000000000000008110611cdf5760409190911b9060801c5b680100000000000000008110611cfa5760209190911b9060401c5b6401000000008110611d115760109190911b9060201c5b620100008110611d265760089190911b9060101c5b6101008110611d3a5760049190911b9060081c5b60108110611d4d5760029190911b9060041c5b60088110611d5c578160011b91505b5080820401600190811c80830401811c80830401811c80830401811c80830401811c80830401811c80830401901c80820481811015611d99578091505b50919050565b6000818310611dae5781611db0565b825b9392505050565b6001600160a01b03821660009081526003602052604081208054839290611ddf908490612191565b90915550506002805482900390556040518181526000906001600160a01b038416907fddf252ad1be2c89b69c2b068fc378daa952ba7f163c4a11628f55a4df523b3ef90602001611b8c565b600654610100900460ff166118035760405162461bcd60e51b815260206004820152602b60248201527f496e697469616c697a61626c653a20636f6e7472616374206973206e6f74206960448201527f6e697469616c697a696e670000000000000000000000000000000000000000006064820152608401610493565b80356001600160a01b0381168114611ebf57600080fd5b919050565b600080600080600060808688031215611edc57600080fd5b8535945060208601359350611ef360408701611ea8565b9250606086013567ffffffffffffffff80821115611f1057600080fd5b818801915088601f830112611f2457600080fd5b813581811115611f3357600080fd5b896020828501011115611f4557600080fd5b9699959850939650602001949392505050565b60005b83811015611f73578181015183820152602001611f5b565b83811115610b2d5750506000910152565b6020815260008251806020840152611fa3816040850160208701611f58565b601f01601f19169190910160400192915050565b60008060408385031215611fca57600080fd5b611fd383611ea8565b946020939093013593505050565b600080600060608486031215611ff657600080fd5b611fff84611ea8565b925061200d60208501611ea8565b9150604084013590509250925092565b60006020828403121561202f57600080fd5b611db082611ea8565b600080600080600080600060e0888a03121561205357600080fd5b61205c88611ea8565b965061206a60208901611ea8565b95506040880135945060608801359350608088013560ff8116811461208e57600080fd5b9699959850939692959460a0840135945060c09093013592915050565b600080604083850312156120be57600080fd5b6120c783611ea8565b91506120d560208401611ea8565b90509250929050565b634e487b7160e01b600052601160045260246000fd5b60008219821115612107576121076120de565b500190565b6001600160a01b038616815284602082015283604082015260806060820152816080820152818360a0830137600081830160a090810191909152601f909201601f19160101949350505050565b60006020828403121561216b57600080fd5b5051919050565b600081600019048311821515161561218c5761218c6120de565b500290565b6000828210156121a3576121a36120de565b500390565b600181811c908216806121bc57607f821691505b60208210811415611d9957634e487b7160e01b600052602260045260246000fd5b600082516121ef818460208701611f58565b9190910192915050565b60006020828403121561220b57600080fd5b81518015158114611db057600080fd5b634e487b7160e01b600052601260045260246000fd5b600080835481600182811c91508083168061224d57607f831692505b602080841082141561226d57634e487b7160e01b86526022600452602486fd5b81801561228157600181146122b0576122dd565b7fffffffffffffffffffffffffffffffffffffffffffffffffffffffffffffff008616895284890196506122dd565b60008a81526020902060005b868110156122d55781548b8201529085019083016122bc565b505084890196505b50949897505050505050505056fea264697066735822122028db64c5d5c7b3f74dc629c88955ae3fda5885a30713ab42c5daa0071fdeb11864736f6c634300080c0033",
  "devdoc": {
    "kind": "dev",
    "methods": {},
    "version": 1
  },
  "userdoc": {
    "kind": "user",
    "methods": {},
    "version": 1
  },
  "storageLayout": {
    "storage": [
      {
        "astId": 2533,
        "contract": "contracts/UnipoolFactory.sol:UnipoolFactory",
        "label": "_getPair",
        "offset": 0,
        "slot": "0",
        "type": "t_mapping(t_address,t_mapping(t_address,t_address))"
      },
      {
        "astId": 2536,
        "contract": "contracts/UnipoolFactory.sol:UnipoolFactory",
        "label": "allPairs",
        "offset": 0,
        "slot": "1",
        "type": "t_array(t_address)dyn_storage"
      },
      {
        "astId": 2555,
        "contract": "contracts/UnipoolFactory.sol:UnipoolFactory",
        "label": "implementation",
        "offset": 0,
        "slot": "2",
        "type": "t_address"
      }
    ],
    "types": {
      "t_address": {
        "encoding": "inplace",
        "label": "address",
        "numberOfBytes": "20"
      },
      "t_array(t_address)dyn_storage": {
        "base": "t_address",
        "encoding": "dynamic_array",
        "label": "address[]",
        "numberOfBytes": "32"
      },
      "t_mapping(t_address,t_address)": {
        "encoding": "mapping",
        "key": "t_address",
        "label": "mapping(address => address)",
        "numberOfBytes": "32",
        "value": "t_address"
      },
      "t_mapping(t_address,t_mapping(t_address,t_address))": {
        "encoding": "mapping",
        "key": "t_address",
        "label": "mapping(address => mapping(address => address))",
        "numberOfBytes": "32",
        "value": "t_mapping(t_address,t_address)"
      }
    }
  }
}